{
  "contractName": "DegreeVerification",
  "abi": [
    {
      "inputs": [],
      "stateMutability": "nonpayable",
      "type": "constructor"
    },
    {
      "anonymous": false,
      "inputs": [
        {
          "indexed": true,
          "internalType": "bytes32",
          "name": "degreeHash",
          "type": "bytes32"
        },
        {
          "indexed": false,
          "internalType": "string",
          "name": "firstName",
          "type": "string"
        },
        {
          "indexed": false,
          "internalType": "string",
          "name": "lastName",
          "type": "string"
        },
        {
          "indexed": false,
          "internalType": "string",
          "name": "rollNumber",
          "type": "string"
        }
      ],
      "name": "DegreeAdded",
      "type": "event"
    },
    {
      "inputs": [],
      "name": "admin",
      "outputs": [
        {
          "internalType": "address",
          "name": "",
          "type": "address"
        }
      ],
      "stateMutability": "view",
      "type": "function",
      "constant": true
    },
    {
      "inputs": [
        {
          "internalType": "string",
          "name": "_firstName",
          "type": "string"
        },
        {
          "internalType": "string",
          "name": "_lastName",
          "type": "string"
        },
        {
          "internalType": "string",
          "name": "_rollNumber",
          "type": "string"
        },
        {
          "internalType": "string",
          "name": "_gender",
          "type": "string"
        },
        {
          "internalType": "string",
          "name": "_course",
          "type": "string"
        },
        {
          "internalType": "string",
          "name": "_email",
          "type": "string"
        },
        {
          "internalType": "string",
          "name": "_year",
          "type": "string"
        },
        {
          "internalType": "string",
          "name": "_graduationYear",
          "type": "string"
        },
        {
          "internalType": "string",
          "name": "_gpa",
          "type": "string"
        },
        {
          "internalType": "bytes32",
          "name": "_hexCode",
          "type": "bytes32"
        }
      ],
      "name": "addDegree",
      "outputs": [],
      "stateMutability": "nonpayable",
      "type": "function"
    },
    {
      "inputs": [
        {
          "internalType": "bytes32",
          "name": "_hexCode",
          "type": "bytes32"
        }
      ],
      "name": "verifyDegree",
      "outputs": [
        {
          "internalType": "bool",
          "name": "",
          "type": "bool"
        }
      ],
      "stateMutability": "view",
      "type": "function",
      "constant": true
    }
  ],
  "bytecode": "0x608060405234801561001057600080fd5b5033600160006101000a81548173ffffffffffffffffffffffffffffffffffffffff021916908373ffffffffffffffffffffffffffffffffffffffff160217905550610c6e806100616000396000f3fe608060405234801561001057600080fd5b50600436106100415760003560e01c8063568ef99114610046578063c6909d7e14610076578063f851a44014610092575b600080fd5b610060600480360381019061005b91906103cd565b6100b0565b60405161006d9190610415565b60405180910390f35b610090600480360381019061008b9190610576565b6100dc565b005b61009a61035d565b6040516100a79190610792565b60405180910390f35b600080600083815260200190815260200160002060090160009054906101000a900460ff169050919050565b600160009054906101000a900473ffffffffffffffffffffffffffffffffffffffff1673ffffffffffffffffffffffffffffffffffffffff163373ffffffffffffffffffffffffffffffffffffffff161461016c576040517f08c379a00000000000000000000000000000000000000000000000000000000081526004016101639061080a565b60405180910390fd5b60008082815260200190815260200160002060090160009054906101000a900460ff16156101cf576040517f08c379a00000000000000000000000000000000000000000000000000000000081526004016101c690610876565b60405180910390fd5b6040518061014001604052808b81526020018a815260200189815260200188815260200187815260200186815260200185815260200184815260200183815260200160011515815250600080838152602001908152602001600020600082015181600001908161023f9190610ab7565b5060208201518160010190816102559190610ab7565b50604082015181600201908161026b9190610ab7565b5060608201518160030190816102819190610ab7565b5060808201518160040190816102979190610ab7565b5060a08201518160050190816102ad9190610ab7565b5060c08201518160060190816102c39190610ab7565b5060e08201518160070190816102d99190610ab7565b506101008201518160080190816102f09190610ab7565b506101208201518160090160006101000a81548160ff021916908315150217905550905050807f5d8c446b54d0c545f283761a8165da5aea8e8bfe82b2b818ea4bb549612d6d018b8b8b60405161034993929190610bec565b60405180910390a250505050505050505050565b600160009054906101000a900473ffffffffffffffffffffffffffffffffffffffff1681565b6000604051905090565b600080fd5b600080fd5b6000819050919050565b6103aa81610397565b81146103b557600080fd5b50565b6000813590506103c7816103a1565b92915050565b6000602082840312156103e3576103e261038d565b5b60006103f1848285016103b8565b91505092915050565b60008115159050919050565b61040f816103fa565b82525050565b600060208201905061042a6000830184610406565b92915050565b600080fd5b600080fd5b6000601f19601f8301169050919050565b7f4e487b7100000000000000000000000000000000000000000000000000000000600052604160045260246000fd5b6104838261043a565b810181811067ffffffffffffffff821117156104a2576104a161044b565b5b80604052505050565b60006104b5610383565b90506104c1828261047a565b919050565b600067ffffffffffffffff8211156104e1576104e061044b565b5b6104ea8261043a565b9050602081019050919050565b82818337600083830152505050565b6000610519610514846104c6565b6104ab565b90508281526020810184848401111561053557610534610435565b5b6105408482856104f7565b509392505050565b600082601f83011261055d5761055c610430565b5b813561056d848260208601610506565b91505092915050565b6000806000806000806000806000806101408b8d03121561059a5761059961038d565b5b60008b013567ffffffffffffffff8111156105b8576105b7610392565b5b6105c48d828e01610548565b9a505060208b013567ffffffffffffffff8111156105e5576105e4610392565b5b6105f18d828e01610548565b99505060408b013567ffffffffffffffff81111561061257610611610392565b5b61061e8d828e01610548565b98505060608b013567ffffffffffffffff81111561063f5761063e610392565b5b61064b8d828e01610548565b97505060808b013567ffffffffffffffff81111561066c5761066b610392565b5b6106788d828e01610548565b96505060a08b013567ffffffffffffffff81111561069957610698610392565b5b6106a58d828e01610548565b95505060c08b013567ffffffffffffffff8111156106c6576106c5610392565b5b6106d28d828e01610548565b94505060e08b013567ffffffffffffffff8111156106f3576106f2610392565b5b6106ff8d828e01610548565b9350506101008b013567ffffffffffffffff81111561072157610720610392565b5b61072d8d828e01610548565b92505061012061073f8d828e016103b8565b9150509295989b9194979a5092959850565b600073ffffffffffffffffffffffffffffffffffffffff82169050919050565b600061077c82610751565b9050919050565b61078c81610771565b82525050565b60006020820190506107a76000830184610783565b92915050565b600082825260208201905092915050565b7f4f6e6c792061646d696e2063616e206164642064656772656573000000000000600082015250565b60006107f4601a836107ad565b91506107ff826107be565b602082019050919050565b60006020820190508181036000830152610823816107e7565b9050919050565b7f44656772656520616c7265616479206578697374730000000000000000000000600082015250565b60006108606015836107ad565b915061086b8261082a565b602082019050919050565b6000602082019050818103600083015261088f81610853565b9050919050565b600081519050919050565b7f4e487b7100000000000000000000000000000000000000000000000000000000600052602260045260246000fd5b600060028204905060018216806108e857607f821691505b6020821081036108fb576108fa6108a1565b5b50919050565b60008190508160005260206000209050919050565b60006020601f8301049050919050565b600082821b905092915050565b6000600883026109637fffffffffffffffffffffffffffffffffffffffffffffffffffffffffffffffff82610926565b61096d8683610926565b95508019841693508086168417925050509392505050565b6000819050919050565b6000819050919050565b60006109b46109af6109aa84610985565b61098f565b610985565b9050919050565b6000819050919050565b6109ce83610999565b6109e26109da826109bb565b848454610933565b825550505050565b600090565b6109f76109ea565b610a028184846109c5565b505050565b5b81811015610a2657610a1b6000826109ef565b600181019050610a08565b5050565b601f821115610a6b57610a3c81610901565b610a4584610916565b81016020851015610a54578190505b610a68610a6085610916565b830182610a07565b50505b505050565b600082821c905092915050565b6000610a8e60001984600802610a70565b1980831691505092915050565b6000610aa78383610a7d565b9150826002028217905092915050565b610ac082610896565b67ffffffffffffffff811115610ad957610ad861044b565b5b610ae382546108d0565b610aee828285610a2a565b600060209050601f831160018114610b215760008415610b0f578287015190505b610b198582610a9b565b865550610b81565b601f198416610b2f86610901565b60005b82811015610b5757848901518255600182019150602085019450602081019050610b32565b86831015610b745784890151610b70601f891682610a7d565b8355505b6001600288020188555050505b505050505050565b60005b83811015610ba7578082015181840152602081019050610b8c565b60008484015250505050565b6000610bbe82610896565b610bc881856107ad565b9350610bd8818560208601610b89565b610be18161043a565b840191505092915050565b60006060820190508181036000830152610c068186610bb3565b90508181036020830152610c1a8185610bb3565b90508181036040830152610c2e8184610bb3565b905094935050505056fea26469706673582212207031e77a7a688ed8894484879588aa463e99285ab257f0022617e1488431f7da64736f6c63430008130033",
  "immutableReferences": {},
  "source": "// SPDX-License-Identifier: MIT\r\npragma solidity ^0.8.19;\r\n\r\ncontract DegreeVerification {\r\n    struct Degree {\r\n        string firstName;\r\n        string lastName;\r\n        string rollNumber;\r\n        string gender;\r\n        string course;\r\n        string email;\r\n        string year;\r\n        string graduationYear;\r\n        string gpa;\r\n        bool exists;\r\n    }\r\n\r\n    mapping(bytes32 => Degree) private degrees;\r\n    address public admin;\r\n\r\n    event DegreeAdded(bytes32 indexed degreeHash, string firstName, string lastName, string rollNumber);\r\n\r\n    constructor() {\r\n        admin = msg.sender;\r\n    }\r\n\r\n    function addDegree(\r\n        string memory _firstName,\r\n        string memory _lastName,\r\n        string memory _rollNumber,\r\n        string memory _gender,\r\n        string memory _course,\r\n        string memory _email,\r\n        string memory _year,\r\n        string memory _graduationYear,\r\n        string memory _gpa,\r\n        bytes32 _hexCode\r\n    ) public {\r\n        require(msg.sender == admin, \"Only admin can add degrees\");\r\n        require(!degrees[_hexCode].exists, \"Degree already exists\");\r\n\r\n        degrees[_hexCode] = Degree(\r\n            _firstName,\r\n            _lastName,\r\n            _rollNumber,\r\n            _gender,\r\n            _course,\r\n            _email,\r\n            _year,\r\n            _graduationYear,\r\n            _gpa,\r\n            true\r\n        );\r\n        emit DegreeAdded(_hexCode, _firstName, _lastName, _rollNumber);\r\n    }\r\n\r\n    function verifyDegree(bytes32 _hexCode) public view returns (bool) {\r\n        return degrees[_hexCode].exists;\r\n    }\r\n}\r\n",
  "sourcePath": "C:\\Users\\patha\\Downloads\\TEsting\\dummy-smart-contract\\contracts\\DegreeVerification.sol",
  "compiler": {
    "name": "solc",
    "version": "0.8.19+commit.7dd6d404.Emscripten.clang"
  },
  "schemaVersion": "3.4.16",
  "updatedAt": "2025-04-02T05:11:04.243Z",
  "networkType": "ethereum",
  "devdoc": {
    "kind": "dev",
    "methods": {},
    "version": 1
  },
  "userdoc": {
    "kind": "user",
    "methods": {},
    "version": 1
  }
}