{
  "contractName": "DegreeVerification",
  "abi": [
    {
      "inputs": [],
      "stateMutability": "nonpayable",
      "type": "constructor"
    },
    {
      "anonymous": false,
      "inputs": [
        {
          "indexed": true,
          "internalType": "bytes32",
          "name": "degreeHash",
          "type": "bytes32"
        },
        {
          "indexed": false,
          "internalType": "string",
          "name": "studentName",
          "type": "string"
        },
        {
          "indexed": false,
          "internalType": "string",
          "name": "university",
          "type": "string"
        }
      ],
      "name": "DegreeAdded",
      "type": "event"
    },
    {
      "inputs": [],
      "name": "admin",
      "outputs": [
        {
          "internalType": "address",
          "name": "",
          "type": "address"
        }
      ],
      "stateMutability": "view",
      "type": "function",
      "constant": true
    },
    {
      "inputs": [
        {
          "internalType": "string",
          "name": "_studentName",
          "type": "string"
        },
        {
          "internalType": "string",
          "name": "_university",
          "type": "string"
        },
        {
          "internalType": "string",
          "name": "_degree",
          "type": "string"
        },
        {
          "internalType": "string",
          "name": "_graduationYear",
          "type": "string"
        }
      ],
      "name": "addDegree",
      "outputs": [],
      "stateMutability": "nonpayable",
      "type": "function"
    },
    {
      "inputs": [
        {
          "internalType": "string",
          "name": "_studentName",
          "type": "string"
        },
        {
          "internalType": "string",
          "name": "_university",
          "type": "string"
        },
        {
          "internalType": "string",
          "name": "_degree",
          "type": "string"
        },
        {
          "internalType": "string",
          "name": "_graduationYear",
          "type": "string"
        }
      ],
      "name": "verifyDegree",
      "outputs": [
        {
          "internalType": "bool",
          "name": "",
          "type": "bool"
        }
      ],
      "stateMutability": "view",
      "type": "function",
      "constant": true
    }
  ],
  "bytecode": "0x608060405234801561001057600080fd5b5033600160006101000a81548173ffffffffffffffffffffffffffffffffffffffff021916908373ffffffffffffffffffffffffffffffffffffffff160217905550610b3b806100616000396000f3fe608060405234801561001057600080fd5b50600436106100415760003560e01c80633581ed4c14610046578063c259194a14610062578063f851a44014610092575b600080fd5b610060600480360381019061005b91906104ac565b6100b0565b005b61007c600480360381019061007791906104ac565b6102cc565b604051610089919061059e565b60405180910390f35b61009a61032c565b6040516100a791906105fa565b60405180910390f35b600160009054906101000a900473ffffffffffffffffffffffffffffffffffffffff1673ffffffffffffffffffffffffffffffffffffffff163373ffffffffffffffffffffffffffffffffffffffff1614610140576040517f08c379a000000000000000000000000000000000000000000000000000000000815260040161013790610672565b60405180910390fd5b6000848484846040516020016101599493929190610703565b60405160208183030381529060405280519060200120905060008082815260200190815260200160002060040160009054906101000a900460ff16156101d4576040517f08c379a00000000000000000000000000000000000000000000000000000000081526004016101cb9061078d565b60405180910390fd5b6040518060a0016040528086815260200185815260200184815260200183815260200160011515815250600080838152602001908152602001600020600082015181600001908161022591906109c3565b50602082015181600101908161023b91906109c3565b50604082015181600201908161025191906109c3565b50606082015181600301908161026791906109c3565b5060808201518160040160006101000a81548160ff021916908315150217905550905050807f40fcdb07f2e6aeefc3ec6fdaa76cc378dcee8f325be33a3ffc2b7767b9d52a5886866040516102bd929190610ace565b60405180910390a25050505050565b600080858585856040516020016102e69493929190610703565b60405160208183030381529060405280519060200120905060008082815260200190815260200160002060040160009054906101000a900460ff16915050949350505050565b600160009054906101000a900473ffffffffffffffffffffffffffffffffffffffff1681565b6000604051905090565b600080fd5b600080fd5b600080fd5b600080fd5b6000601f19601f8301169050919050565b7f4e487b7100000000000000000000000000000000000000000000000000000000600052604160045260246000fd5b6103b982610370565b810181811067ffffffffffffffff821117156103d8576103d7610381565b5b80604052505050565b60006103eb610352565b90506103f782826103b0565b919050565b600067ffffffffffffffff82111561041757610416610381565b5b61042082610370565b9050602081019050919050565b82818337600083830152505050565b600061044f61044a846103fc565b6103e1565b90508281526020810184848401111561046b5761046a61036b565b5b61047684828561042d565b509392505050565b600082601f83011261049357610492610366565b5b81356104a384826020860161043c565b91505092915050565b600080600080608085870312156104c6576104c561035c565b5b600085013567ffffffffffffffff8111156104e4576104e3610361565b5b6104f08782880161047e565b945050602085013567ffffffffffffffff81111561051157610510610361565b5b61051d8782880161047e565b935050604085013567ffffffffffffffff81111561053e5761053d610361565b5b61054a8782880161047e565b925050606085013567ffffffffffffffff81111561056b5761056a610361565b5b6105778782880161047e565b91505092959194509250565b60008115159050919050565b61059881610583565b82525050565b60006020820190506105b3600083018461058f565b92915050565b600073ffffffffffffffffffffffffffffffffffffffff82169050919050565b60006105e4826105b9565b9050919050565b6105f4816105d9565b82525050565b600060208201905061060f60008301846105eb565b92915050565b600082825260208201905092915050565b7f4f6e6c792061646d696e2063616e206164642064656772656573000000000000600082015250565b600061065c601a83610615565b915061066782610626565b602082019050919050565b6000602082019050818103600083015261068b8161064f565b9050919050565b600081519050919050565b600081905092915050565b60005b838110156106c65780820151818401526020810190506106ab565b60008484015250505050565b60006106dd82610692565b6106e7818561069d565b93506106f78185602086016106a8565b80840191505092915050565b600061070f82876106d2565b915061071b82866106d2565b915061072782856106d2565b915061073382846106d2565b915081905095945050505050565b7f44656772656520616c7265616479206578697374730000000000000000000000600082015250565b6000610777601583610615565b915061078282610741565b602082019050919050565b600060208201905081810360008301526107a68161076a565b9050919050565b7f4e487b7100000000000000000000000000000000000000000000000000000000600052602260045260246000fd5b600060028204905060018216806107f457607f821691505b602082108103610807576108066107ad565b5b50919050565b60008190508160005260206000209050919050565b60006020601f8301049050919050565b600082821b905092915050565b60006008830261086f7fffffffffffffffffffffffffffffffffffffffffffffffffffffffffffffffff82610832565b6108798683610832565b95508019841693508086168417925050509392505050565b6000819050919050565b6000819050919050565b60006108c06108bb6108b684610891565b61089b565b610891565b9050919050565b6000819050919050565b6108da836108a5565b6108ee6108e6826108c7565b84845461083f565b825550505050565b600090565b6109036108f6565b61090e8184846108d1565b505050565b5b81811015610932576109276000826108fb565b600181019050610914565b5050565b601f821115610977576109488161080d565b61095184610822565b81016020851015610960578190505b61097461096c85610822565b830182610913565b50505b505050565b600082821c905092915050565b600061099a6000198460080261097c565b1980831691505092915050565b60006109b38383610989565b9150826002028217905092915050565b6109cc82610692565b67ffffffffffffffff8111156109e5576109e4610381565b5b6109ef82546107dc565b6109fa828285610936565b600060209050601f831160018114610a2d5760008415610a1b578287015190505b610a2585826109a7565b865550610a8d565b601f198416610a3b8661080d565b60005b82811015610a6357848901518255600182019150602085019450602081019050610a3e565b86831015610a805784890151610a7c601f891682610989565b8355505b6001600288020188555050505b505050505050565b6000610aa082610692565b610aaa8185610615565b9350610aba8185602086016106a8565b610ac381610370565b840191505092915050565b60006040820190508181036000830152610ae88185610a95565b90508181036020830152610afc8184610a95565b9050939250505056fea2646970667358221220784158fd1084b785b0ecaaa18d223d56a4c7725d44876d5c4edb9e640d12d19264736f6c63430008130033",
  "immutableReferences": {},
  "source": "// SPDX-License-Identifier: MIT\r\npragma solidity ^0.8.19;\r\n\r\ncontract DegreeVerification {\r\n    struct Degree {\r\n        string studentName;\r\n        string university;\r\n        string degree;\r\n        string graduationYear;\r\n        bool exists;\r\n    }\r\n\r\n    mapping(bytes32 => Degree) private degrees;\r\n    address public admin;\r\n\r\n    event DegreeAdded(bytes32 indexed degreeHash, string studentName, string university);\r\n\r\n    constructor() {\r\n        admin = msg.sender;\r\n    }\r\n\r\n    function addDegree(\r\n        string memory _studentName,\r\n        string memory _university,\r\n        string memory _degree,\r\n        string memory _graduationYear\r\n    ) public {\r\n        require(msg.sender == admin, \"Only admin can add degrees\");\r\n        \r\n        bytes32 degreeHash = keccak256(abi.encodePacked(_studentName, _university, _degree, _graduationYear));\r\n        require(!degrees[degreeHash].exists, \"Degree already exists\");\r\n\r\n        degrees[degreeHash] = Degree(_studentName, _university, _degree, _graduationYear, true);\r\n        emit DegreeAdded(degreeHash, _studentName, _university);\r\n    }\r\n\r\n    function verifyDegree(\r\n        string memory _studentName,\r\n        string memory _university,\r\n        string memory _degree,\r\n        string memory _graduationYear\r\n    ) public view returns (bool) {\r\n        bytes32 degreeHash = keccak256(abi.encodePacked(_studentName, _university, _degree, _graduationYear));\r\n        return degrees[degreeHash].exists;\r\n    }\r\n}\r\n",
  "sourcePath": "C:\\Users\\patha\\Downloads\\TEsting\\dummy-smart-contract\\contracts\\DegreeVerification.sol",
  "compiler": {
    "name": "solc",
    "version": "0.8.19+commit.7dd6d404.Emscripten.clang"
  },
  "schemaVersion": "3.4.16",
  "updatedAt": "2025-04-02T04:53:53.004Z",
  "networkType": "ethereum",
  "devdoc": {
    "kind": "dev",
    "methods": {},
    "version": 1
  },
  "userdoc": {
    "kind": "user",
    "methods": {},
    "version": 1
  }
}